{
  "_format": "hh-sol-artifact-1",
  "contractName": "RweStudios1155",
  "sourceName": "contracts/RweStudios1155.sol",
  "abi": [
    {
      "inputs": [
        {
          "internalType": "string",
          "name": "_name",
          "type": "string"
        },
        {
          "internalType": "string",
          "name": "_symbol",
          "type": "string"
        },
        {
          "internalType": "address",
          "name": "initialOwner",
          "type": "address"
        },
        {
          "internalType": "string",
          "name": "baseUri",
          "type": "string"
        },
        {
          "internalType": "bytes32",
          "name": "_secretKey",
          "type": "bytes32"
        }
      ],
      "stateMutability": "nonpayable",
      "type": "constructor"
    },
    {
      "inputs": [
        {
          "internalType": "address",
          "name": "sender",
          "type": "address"
        },
        {
          "internalType": "uint256",
          "name": "balance",
          "type": "uint256"
        },
        {
          "internalType": "uint256",
          "name": "needed",
          "type": "uint256"
        },
        {
          "internalType": "uint256",
          "name": "tokenId",
          "type": "uint256"
        }
      ],
      "name": "ERC1155InsufficientBalance",
      "type": "error"
    },
    {
      "inputs": [
        {
          "internalType": "address",
          "name": "approver",
          "type": "address"
        }
      ],
      "name": "ERC1155InvalidApprover",
      "type": "error"
    },
    {
      "inputs": [
        {
          "internalType": "uint256",
          "name": "idsLength",
          "type": "uint256"
        },
        {
          "internalType": "uint256",
          "name": "valuesLength",
          "type": "uint256"
        }
      ],
      "name": "ERC1155InvalidArrayLength",
      "type": "error"
    },
    {
      "inputs": [
        {
          "internalType": "address",
          "name": "operator",
          "type": "address"
        }
      ],
      "name": "ERC1155InvalidOperator",
      "type": "error"
    },
    {
      "inputs": [
        {
          "internalType": "address",
          "name": "receiver",
          "type": "address"
        }
      ],
      "name": "ERC1155InvalidReceiver",
      "type": "error"
    },
    {
      "inputs": [
        {
          "internalType": "address",
          "name": "sender",
          "type": "address"
        }
      ],
      "name": "ERC1155InvalidSender",
      "type": "error"
    },
    {
      "inputs": [
        {
          "internalType": "address",
          "name": "operator",
          "type": "address"
        },
        {
          "internalType": "address",
          "name": "owner",
          "type": "address"
        }
      ],
      "name": "ERC1155MissingApprovalForAll",
      "type": "error"
    },
    {
      "inputs": [
        {
          "internalType": "address",
          "name": "owner",
          "type": "address"
        }
      ],
      "name": "OwnableInvalidOwner",
      "type": "error"
    },
    {
      "inputs": [
        {
          "internalType": "address",
          "name": "account",
          "type": "address"
        }
      ],
      "name": "OwnableUnauthorizedAccount",
      "type": "error"
    },
    {
      "anonymous": false,
      "inputs": [
        {
          "indexed": true,
          "internalType": "address",
          "name": "account",
          "type": "address"
        },
        {
          "indexed": true,
          "internalType": "address",
          "name": "operator",
          "type": "address"
        },
        {
          "indexed": false,
          "internalType": "bool",
          "name": "approved",
          "type": "bool"
        }
      ],
      "name": "ApprovalForAll",
      "type": "event"
    },
    {
      "anonymous": false,
      "inputs": [
        {
          "indexed": true,
          "internalType": "address",
          "name": "previousOwner",
          "type": "address"
        },
        {
          "indexed": true,
          "internalType": "address",
          "name": "newOwner",
          "type": "address"
        }
      ],
      "name": "OwnershipTransferred",
      "type": "event"
    },
    {
      "anonymous": false,
      "inputs": [
        {
          "indexed": true,
          "internalType": "address",
          "name": "operator",
          "type": "address"
        },
        {
          "indexed": true,
          "internalType": "address",
          "name": "from",
          "type": "address"
        },
        {
          "indexed": true,
          "internalType": "address",
          "name": "to",
          "type": "address"
        },
        {
          "indexed": false,
          "internalType": "uint256[]",
          "name": "ids",
          "type": "uint256[]"
        },
        {
          "indexed": false,
          "internalType": "uint256[]",
          "name": "values",
          "type": "uint256[]"
        }
      ],
      "name": "TransferBatch",
      "type": "event"
    },
    {
      "anonymous": false,
      "inputs": [
        {
          "indexed": true,
          "internalType": "address",
          "name": "operator",
          "type": "address"
        },
        {
          "indexed": true,
          "internalType": "address",
          "name": "from",
          "type": "address"
        },
        {
          "indexed": true,
          "internalType": "address",
          "name": "to",
          "type": "address"
        },
        {
          "indexed": false,
          "internalType": "uint256",
          "name": "id",
          "type": "uint256"
        },
        {
          "indexed": false,
          "internalType": "uint256",
          "name": "value",
          "type": "uint256"
        }
      ],
      "name": "TransferSingle",
      "type": "event"
    },
    {
      "anonymous": false,
      "inputs": [
        {
          "indexed": false,
          "internalType": "string",
          "name": "value",
          "type": "string"
        },
        {
          "indexed": true,
          "internalType": "uint256",
          "name": "id",
          "type": "uint256"
        }
      ],
      "name": "URI",
      "type": "event"
    },
    {
      "inputs": [],
      "name": "HELMET_BASE",
      "outputs": [
        {
          "internalType": "uint256",
          "name": "",
          "type": "uint256"
        }
      ],
      "stateMutability": "view",
      "type": "function"
    },
    {
      "inputs": [
        {
          "internalType": "address",
          "name": "account",
          "type": "address"
        },
        {
          "internalType": "uint256",
          "name": "id",
          "type": "uint256"
        }
      ],
      "name": "balanceOf",
      "outputs": [
        {
          "internalType": "uint256",
          "name": "",
          "type": "uint256"
        }
      ],
      "stateMutability": "view",
      "type": "function"
    },
    {
      "inputs": [
        {
          "internalType": "address[]",
          "name": "accounts",
          "type": "address[]"
        },
        {
          "internalType": "uint256[]",
          "name": "ids",
          "type": "uint256[]"
        }
      ],
      "name": "balanceOfBatch",
      "outputs": [
        {
          "internalType": "uint256[]",
          "name": "",
          "type": "uint256[]"
        }
      ],
      "stateMutability": "view",
      "type": "function"
    },
    {
      "inputs": [
        {
          "internalType": "bytes32",
          "name": "proof",
          "type": "bytes32"
        },
        {
          "internalType": "string",
          "name": "tokenUri",
          "type": "string"
        }
      ],
      "name": "enhance",
      "outputs": [],
      "stateMutability": "nonpayable",
      "type": "function"
    },
    {
      "inputs": [
        {
          "internalType": "uint256",
          "name": "tokenId",
          "type": "uint256"
        },
        {
          "internalType": "bytes32",
          "name": "secretKey",
          "type": "bytes32"
        }
      ],
      "name": "generateNFTProof",
      "outputs": [
        {
          "internalType": "bytes32",
          "name": "",
          "type": "bytes32"
        }
      ],
      "stateMutability": "view",
      "type": "function"
    },
    {
      "inputs": [
        {
          "internalType": "address",
          "name": "account",
          "type": "address"
        },
        {
          "internalType": "address",
          "name": "operator",
          "type": "address"
        }
      ],
      "name": "isApprovedForAll",
      "outputs": [
        {
          "internalType": "bool",
          "name": "",
          "type": "bool"
        }
      ],
      "stateMutability": "view",
      "type": "function"
    },
    {
      "inputs": [
        {
          "internalType": "uint256",
          "name": "amount",
          "type": "uint256"
        },
        {
          "internalType": "string",
          "name": "tokenUri",
          "type": "string"
        }
      ],
      "name": "mint",
      "outputs": [],
      "stateMutability": "payable",
      "type": "function"
    },
    {
      "inputs": [
        {
          "internalType": "address",
          "name": "to",
          "type": "address"
        },
        {
          "internalType": "uint256[]",
          "name": "ids",
          "type": "uint256[]"
        },
        {
          "internalType": "uint256[]",
          "name": "amounts",
          "type": "uint256[]"
        },
        {
          "internalType": "string[]",
          "name": "uris",
          "type": "string[]"
        }
      ],
      "name": "mintBatch",
      "outputs": [],
      "stateMutability": "nonpayable",
      "type": "function"
    },
    {
      "inputs": [],
      "name": "name",
      "outputs": [
        {
          "internalType": "string",
          "name": "",
          "type": "string"
        }
      ],
      "stateMutability": "view",
      "type": "function"
    },
    {
      "inputs": [],
      "name": "owner",
      "outputs": [
        {
          "internalType": "address",
          "name": "",
          "type": "address"
        }
      ],
      "stateMutability": "view",
      "type": "function"
    },
    {
      "inputs": [],
      "name": "renounceOwnership",
      "outputs": [],
      "stateMutability": "nonpayable",
      "type": "function"
    },
    {
      "inputs": [
        {
          "internalType": "address",
          "name": "from",
          "type": "address"
        },
        {
          "internalType": "address",
          "name": "to",
          "type": "address"
        },
        {
          "internalType": "uint256[]",
          "name": "ids",
          "type": "uint256[]"
        },
        {
          "internalType": "uint256[]",
          "name": "values",
          "type": "uint256[]"
        },
        {
          "internalType": "bytes",
          "name": "data",
          "type": "bytes"
        }
      ],
      "name": "safeBatchTransferFrom",
      "outputs": [],
      "stateMutability": "nonpayable",
      "type": "function"
    },
    {
      "inputs": [
        {
          "internalType": "address",
          "name": "from",
          "type": "address"
        },
        {
          "internalType": "address",
          "name": "to",
          "type": "address"
        },
        {
          "internalType": "uint256",
          "name": "id",
          "type": "uint256"
        },
        {
          "internalType": "uint256",
          "name": "value",
          "type": "uint256"
        },
        {
          "internalType": "bytes",
          "name": "data",
          "type": "bytes"
        }
      ],
      "name": "safeTransferFrom",
      "outputs": [],
      "stateMutability": "nonpayable",
      "type": "function"
    },
    {
      "inputs": [
        {
          "internalType": "address",
          "name": "operator",
          "type": "address"
        },
        {
          "internalType": "bool",
          "name": "approved",
          "type": "bool"
        }
      ],
      "name": "setApprovalForAll",
      "outputs": [],
      "stateMutability": "nonpayable",
      "type": "function"
    },
    {
      "inputs": [
        {
          "internalType": "bytes4",
          "name": "interfaceId",
          "type": "bytes4"
        }
      ],
      "name": "supportsInterface",
      "outputs": [
        {
          "internalType": "bool",
          "name": "",
          "type": "bool"
        }
      ],
      "stateMutability": "view",
      "type": "function"
    },
    {
      "inputs": [],
      "name": "symbol",
      "outputs": [
        {
          "internalType": "string",
          "name": "",
          "type": "string"
        }
      ],
      "stateMutability": "view",
      "type": "function"
    },
    {
      "inputs": [
        {
          "internalType": "address",
          "name": "newOwner",
          "type": "address"
        }
      ],
      "name": "transferOwnership",
      "outputs": [],
      "stateMutability": "nonpayable",
      "type": "function"
    },
    {
      "inputs": [
        {
          "internalType": "uint256",
          "name": "tokenId",
          "type": "uint256"
        }
      ],
      "name": "uri",
      "outputs": [
        {
          "internalType": "string",
          "name": "",
          "type": "string"
        }
      ],
      "stateMutability": "view",
      "type": "function"
    },
    {
      "inputs": [
        {
          "internalType": "uint256",
          "name": "tokenId",
          "type": "uint256"
        },
        {
          "internalType": "bytes32",
          "name": "proof",
          "type": "bytes32"
        }
      ],
      "name": "verifyNFTProof",
      "outputs": [
        {
          "internalType": "bool",
          "name": "",
          "type": "bool"
        }
      ],
      "stateMutability": "view",
      "type": "function"
    }
  ],
  "bytecode": "0x60c0604052601460809081527f4d69636520496e2041204d617a65204974656d7300000000000000000000000060a0526005906200003e908262000220565b506040805180820190915260048152634d69614d60e01b602082015260069062000069908262000220565b5060006007553480156200007c57600080fd5b5060405162002040380380620020408339810160408190526200009f916200039b565b82818184620000ae8162000117565b506001600160a01b038116620000de57604051631e4fbdf760e01b81526000600482015260240160405180910390fd5b620000e98162000129565b50600455506005620000fc868262000220565b5060066200010b858262000220565b50505050505062000458565b600262000125828262000220565b5050565b600380546001600160a01b038381166001600160a01b0319831681179093556040519116919082907f8be0079c531659141344cd1fd0a4f28419497f9722a3daafe3b4186f6b6457e090600090a35050565b634e487b7160e01b600052604160045260246000fd5b600181811c90821680620001a657607f821691505b602082108103620001c757634e487b7160e01b600052602260045260246000fd5b50919050565b601f8211156200021b57600081815260208120601f850160051c81016020861015620001f65750805b601f850160051c820191505b81811015620002175782815560010162000202565b5050505b505050565b81516001600160401b038111156200023c576200023c6200017b565b62000254816200024d845462000191565b84620001cd565b602080601f8311600181146200028c5760008415620002735750858301515b600019600386901b1c1916600185901b17855562000217565b600085815260208120601f198616915b82811015620002bd578886015182559484019460019091019084016200029c565b5085821015620002dc5787850151600019600388901b60f8161c191681555b5050505050600190811b01905550565b600082601f830112620002fe57600080fd5b81516001600160401b03808211156200031b576200031b6200017b565b604051601f8301601f19908116603f011681019082821181831017156200034657620003466200017b565b816040528381526020925086838588010111156200036357600080fd5b600091505b8382101562000387578582018301518183018401529082019062000368565b600093810190920192909252949350505050565b600080600080600060a08688031215620003b457600080fd5b85516001600160401b0380821115620003cc57600080fd5b620003da89838a01620002ec565b96506020880151915080821115620003f157600080fd5b620003ff89838a01620002ec565b604089015190965091506001600160a01b03821682146200041f57600080fd5b6060880151919450808211156200043557600080fd5b506200044488828901620002ec565b925050608086015190509295509295909350565b611bd880620004686000396000f3fe6080604052600436106100f35760003560e01c80638da5cb5b116100905780638da5cb5b1461023457806393bcbadc1461025a57806395d89b4114610270578063972c8f1914610285578063a22cb465146102a5578063a55784ef146102c5578063a8644259146102e5578063e985e9c514610305578063f242432a14610325578063f2fde38b1461034557600080fd5b8062fdd58e146100f857806301ffc9a71461012b578063045a66221461015b57806306fdde031461017b5780630e89341c1461019d5780632eb2c2d6146101bd5780634e1273f4146101df578063715018a61461020c57806377097fc814610221575b600080fd5b34801561010457600080fd5b5061011861011336600461128c565b610365565b6040519081526020015b60405180910390f35b34801561013757600080fd5b5061014b6101463660046112cc565b61038d565b6040519015158152602001610122565b34801561016757600080fd5b5061014b6101763660046112f0565b6103dd565b34801561018757600080fd5b50610190610421565b6040516101229190611362565b3480156101a957600080fd5b506101906101b8366004611375565b6104af565b3480156101c957600080fd5b506101dd6101d83660046114d1565b6104ea565b005b3480156101eb57600080fd5b506101ff6101fa36600461157a565b61054b565b6040516101229190611674565b34801561021857600080fd5b506101dd61061f565b6101dd61022f366004611687565b610633565b34801561024057600080fd5b506003546001600160a01b031660405161012291906116c3565b34801561026657600080fd5b506101186103e881565b34801561027c57600080fd5b506101906106cf565b34801561029157600080fd5b506101dd6102a0366004611687565b6106dc565b3480156102b157600080fd5b506101dd6102c03660046116d7565b61078d565b3480156102d157600080fd5b506101dd6102e0366004611713565b61079c565b3480156102f157600080fd5b506101186103003660046112f0565b610880565b34801561031157600080fd5b5061014b61032036600461181d565b6108b7565b34801561033157600080fd5b506101dd610340366004611850565b6108e5565b34801561035157600080fd5b506101dd6103603660046118b4565b610935565b6000818152602081815260408083206001600160a01b03861684529091529020545b92915050565b60006001600160e01b03198216636cdb3d1360e11b14806103be57506001600160e01b031982166303a24d0760e21b145b8061038757506301ffc9a760e01b6001600160e01b0319831614610387565b600080836004546040516020016103fe929190918252602082015260400190565b60408051601f198184030181529190528051602090910120831491505092915050565b6005805461042e906118cf565b80601f016020809104026020016040519081016040528092919081815260200182805461045a906118cf565b80156104a75780601f1061047c576101008083540402835291602001916104a7565b820191906000526020600020905b81548152906001019060200180831161048a57829003601f168201915b505050505081565b60606104ba82610973565b6104c383610a07565b6040516020016104d4929190611909565b6040516020818303038152906040529050919050565b336001600160a01b038616811480159061050b575061050986826108b7565b155b1561053657808660405163711bec9160e11b815260040161052d929190611938565b60405180910390fd5b6105438686868686610a99565b505050505050565b6060815183511461057c5781518351604051635b05999160e01b81526004810192909252602482015260440161052d565b600083516001600160401b038111156105975761059761138e565b6040519080825280602002602001820160405280156105c0578160200160208202803683370190505b50905060005b8451811015610617576020808202860101516105ea90602080840287010151610365565b8282815181106105fc576105fc611952565b60209081029190910101526106108161197e565b90506105c6565b509392505050565b610627610b00565b6106316000610b2d565b565b66b1a2bc2ec50000341161067d5760405162461bcd60e51b81526020600482015260116024820152704e6f7420656e6f7567682066756e64732160781b604482015260640161052d565b61069a336007548460405180602001604052806000815250610b7f565b60075460009081526008602052604090206106b582826119e2565b50600780549060006106c68361197e565b91905055505050565b6006805461042e906118cf565b6103e860075411156107265760405162461bcd60e51b81526020600482015260136024820152721d1bdad95b881b1a5b5a5d081c995858da1959606a1b604482015260640161052d565b610732600754836103dd565b61076f5760405162461bcd60e51b815260206004820152600e60248201526d24b73b30b634b210383937b7b31760911b604482015260640161052d565b61069a33600754600160405180602001604052806000815250610b7f565b610798338383610bc8565b5050565b815183511480156107ae575080518251145b6107ed5760405162461bcd60e51b815260206004820152601060248201526f098cadccee8d0e640dad2e6dac2e8c6d60831b604482015260640161052d565b60005b835181101561085e5781818151811061080b5761080b611952565b60200260200101516008600086848151811061082957610829611952565b60200260200101518152602001908152602001600020908161084b91906119e2565b50806108568161197e565b9150506107f0565b5061087a84848460405180602001604052806000815250610c5e565b50505050565b600061088a610b00565b50604080516020808201949094528082019290925280518083038201815260609092019052805191012090565b6001600160a01b03918216600090815260016020908152604080832093909416825291909152205460ff1690565b336001600160a01b0386168114801590610906575061090486826108b7565b155b1561092857808660405163711bec9160e11b815260040161052d929190611938565b6105438686868686610c96565b61093d610b00565b6001600160a01b038116610967576000604051631e4fbdf760e01b815260040161052d91906116c3565b61097081610b2d565b50565b606060028054610982906118cf565b80601f01602080910402602001604051908101604052809291908181526020018280546109ae906118cf565b80156109fb5780601f106109d0576101008083540402835291602001916109fb565b820191906000526020600020905b8154815290600101906020018083116109de57829003601f168201915b50505050509050919050565b60606000610a1483610d10565b60010190506000816001600160401b03811115610a3357610a3361138e565b6040519080825280601f01601f191660200182016040528015610a5d576020820181803683370190505b5090508181016020015b600019016f181899199a1a9b1b9c1cb0b131b232b360811b600a86061a8153600a8504945084610a6757509392505050565b6001600160a01b038416610ac3576000604051632bfa23e760e11b815260040161052d91906116c3565b6001600160a01b038516610aec576000604051626a0d4560e21b815260040161052d91906116c3565b610af98585858585610de6565b5050505050565b6003546001600160a01b03163314610631573360405163118cdaa760e01b815260040161052d91906116c3565b600380546001600160a01b038381166001600160a01b0319831681179093556040519116919082907f8be0079c531659141344cd1fd0a4f28419497f9722a3daafe3b4186f6b6457e090600090a35050565b6001600160a01b038416610ba9576000604051632bfa23e760e11b815260040161052d91906116c3565b600080610bb68585610e39565b91509150610543600087848487610de6565b6001600160a01b038216610bf157600060405162ced3e160e81b815260040161052d91906116c3565b6001600160a01b03838116600081815260016020908152604080832094871680845294825291829020805460ff191686151590811790915591519182527f17307eab39ab6107e8899845ad3d59bd9653f200f220920489ca2b5937696c31910160405180910390a3505050565b6001600160a01b038416610c88576000604051632bfa23e760e11b815260040161052d91906116c3565b61087a600085858585610de6565b6001600160a01b038416610cc0576000604051632bfa23e760e11b815260040161052d91906116c3565b6001600160a01b038516610ce9576000604051626a0d4560e21b815260040161052d91906116c3565b600080610cf68585610e39565b91509150610d078787848487610de6565b50505050505050565b60008072184f03e93ff9f4daa797ed6e38ed64bf6a1f0160401b8310610d4f5772184f03e93ff9f4daa797ed6e38ed64bf6a1f0160401b830492506040015b6904ee2d6d415b85acef8160201b8310610d79576904ee2d6d415b85acef8160201b830492506020015b662386f26fc100008310610d9757662386f26fc10000830492506010015b6305f5e1008310610daf576305f5e100830492506008015b6127108310610dc357612710830492506004015b60648310610dd5576064830492506002015b600a83106103875760010192915050565b610df285858585610e61565b6001600160a01b03841615610af95782513390600103610e2b5760208481015190840151610e2483898985858961107e565b5050610543565b610543818787878787611190565b6040805160018082526020820194909452808201938452606081019290925260808201905291565b8051825114610e905781518151604051635b05999160e01b81526004810192909252602482015260440161052d565b3360005b8351811015610f9f576020818102858101820151908501909101516001600160a01b03881615610f47576000828152602081815260408083206001600160a01b038c16845290915290205481811015610f20576040516303dee4c560e01b81526001600160a01b038a16600482015260248101829052604481018390526064810184905260840161052d565b6000838152602081815260408083206001600160a01b038d16845290915290209082900390555b6001600160a01b03871615610f8c576000828152602081815260408083206001600160a01b038b16845290915281208054839290610f86908490611aa1565b90915550505b505080610f989061197e565b9050610e94565b5082516001036110205760208301516000906020840151909150856001600160a01b0316876001600160a01b0316846001600160a01b03167fc3d58168c5ae7397731d063d5bbf3d657854427343f4c083240f7aacaa2d0f628585604051611011929190918252602082015260400190565b60405180910390a45050610af9565b836001600160a01b0316856001600160a01b0316826001600160a01b03167f4a39dc06d4c0dbc64b70af90fd698a233a518aa5d07e595d983b8c0526c8f7fb868660405161106f929190611ab4565b60405180910390a45050505050565b6001600160a01b0384163b156105435760405163f23a6e6160e01b81526001600160a01b0385169063f23a6e61906110c29089908990889088908890600401611ae2565b6020604051808303816000875af19250505080156110fd575060408051601f3d908101601f191682019092526110fa91810190611b27565b60015b61115d573d80801561112b576040519150601f19603f3d011682016040523d82523d6000602084013e611130565b606091505b5080516000036111555784604051632bfa23e760e11b815260040161052d91906116c3565b805181602001fd5b6001600160e01b0319811663f23a6e6160e01b14610d075784604051632bfa23e760e11b815260040161052d91906116c3565b6001600160a01b0384163b156105435760405163bc197c8160e01b81526001600160a01b0385169063bc197c81906111d49089908990889088908890600401611b44565b6020604051808303816000875af192505050801561120f575060408051601f3d908101601f1916820190925261120c91810190611b27565b60015b61123d573d80801561112b576040519150601f19603f3d011682016040523d82523d6000602084013e611130565b6001600160e01b0319811663bc197c8160e01b14610d075784604051632bfa23e760e11b815260040161052d91906116c3565b80356001600160a01b038116811461128757600080fd5b919050565b6000806040838503121561129f57600080fd5b6112a883611270565b946020939093013593505050565b6001600160e01b03198116811461097057600080fd5b6000602082840312156112de57600080fd5b81356112e9816112b6565b9392505050565b6000806040838503121561130357600080fd5b50508035926020909101359150565b60005b8381101561132d578181015183820152602001611315565b50506000910152565b6000815180845261134e816020860160208601611312565b601f01601f19169290920160200192915050565b6020815260006112e96020830184611336565b60006020828403121561138757600080fd5b5035919050565b634e487b7160e01b600052604160045260246000fd5b604051601f8201601f191681016001600160401b03811182821017156113cc576113cc61138e565b604052919050565b60006001600160401b038211156113ed576113ed61138e565b5060051b60200190565b600082601f83011261140857600080fd5b8135602061141d611418836113d4565b6113a4565b82815260059290921b8401810191818101908684111561143c57600080fd5b8286015b848110156114575780358352918301918301611440565b509695505050505050565b600082601f83011261147357600080fd5b81356001600160401b0381111561148c5761148c61138e565b61149f601f8201601f19166020016113a4565b8181528460208386010111156114b457600080fd5b816020850160208301376000918101602001919091529392505050565b600080600080600060a086880312156114e957600080fd5b6114f286611270565b945061150060208701611270565b935060408601356001600160401b038082111561151c57600080fd5b61152889838a016113f7565b9450606088013591508082111561153e57600080fd5b61154a89838a016113f7565b9350608088013591508082111561156057600080fd5b5061156d88828901611462565b9150509295509295909350565b6000806040838503121561158d57600080fd5b82356001600160401b03808211156115a457600080fd5b818501915085601f8301126115b857600080fd5b813560206115c8611418836113d4565b82815260059290921b840181019181810190898411156115e757600080fd5b948201945b8386101561160c576115fd86611270565b825294820194908201906115ec565b9650508601359250508082111561162257600080fd5b5061162f858286016113f7565b9150509250929050565b600081518084526020808501945080840160005b838110156116695781518752958201959082019060010161164d565b509495945050505050565b6020815260006112e96020830184611639565b6000806040838503121561169a57600080fd5b8235915060208301356001600160401b038111156116b757600080fd5b61162f85828601611462565b6001600160a01b0391909116815260200190565b600080604083850312156116ea57600080fd5b6116f383611270565b91506020830135801515811461170857600080fd5b809150509250929050565b6000806000806080858703121561172957600080fd5b61173285611270565b93506020808601356001600160401b038082111561174f57600080fd5b61175b89838a016113f7565b9550604088013591508082111561177157600080fd5b61177d89838a016113f7565b9450606088013591508082111561179357600080fd5b818801915088601f8301126117a757600080fd5b81356117b5611418826113d4565b81815260059190911b8301840190848101908b8311156117d457600080fd5b8585015b8381101561180c578035858111156117f05760008081fd5b6117fe8e89838a0101611462565b8452509186019186016117d8565b50989b979a50959850505050505050565b6000806040838503121561183057600080fd5b61183983611270565b915061184760208401611270565b90509250929050565b600080600080600060a0868803121561186857600080fd5b61187186611270565b945061187f60208701611270565b9350604086013592506060860135915060808601356001600160401b038111156118a857600080fd5b61156d88828901611462565b6000602082840312156118c657600080fd5b6112e982611270565b600181811c908216806118e357607f821691505b60208210810361190357634e487b7160e01b600052602260045260246000fd5b50919050565b6000835161191b818460208801611312565b83519083019061192f818360208801611312565b01949350505050565b6001600160a01b0392831681529116602082015260400190565b634e487b7160e01b600052603260045260246000fd5b634e487b7160e01b600052601160045260246000fd5b60006001820161199057611990611968565b5060010190565b601f8211156119dd57600081815260208120601f850160051c810160208610156119be5750805b601f850160051c820191505b81811015610543578281556001016119ca565b505050565b81516001600160401b038111156119fb576119fb61138e565b611a0f81611a0984546118cf565b84611997565b602080601f831160018114611a445760008415611a2c5750858301515b600019600386901b1c1916600185901b178555610543565b600085815260208120601f198616915b82811015611a7357888601518255948401946001909101908401611a54565b5085821015611a915787850151600019600388901b60f8161c191681555b5050505050600190811b01905550565b8082018082111561038757610387611968565b604081526000611ac76040830185611639565b8281036020840152611ad98185611639565b95945050505050565b6001600160a01b03868116825285166020820152604081018490526060810183905260a060808201819052600090611b1c90830184611336565b979650505050505050565b600060208284031215611b3957600080fd5b81516112e9816112b6565b6001600160a01b0386811682528516602082015260a060408201819052600090611b7090830186611639565b8281036060840152611b828186611639565b90508281036080840152611b968185611336565b9897505050505050505056fea2646970667358221220bcdf4bcd2b4b4fb0cce17a892110c95c8f60d24e03db91f6e096cc564864051b64736f6c63430008140033",
  "linkReferences": {},
  "deployedLinkReferences": {}
}